{
  "contractName": "CounterContract",
  "abi": [
    {
      "inputs": [],
      "stateMutability": "nonpayable",
      "type": "constructor"
    },
    {
      "inputs": [],
      "name": "counter",
      "outputs": [
        {
          "internalType": "uint32",
          "name": "",
          "type": "uint32"
        }
      ],
      "stateMutability": "view",
      "type": "function",
      "constant": true
    },
    {
      "inputs": [],
      "name": "increment",
      "outputs": [],
      "stateMutability": "nonpayable",
      "type": "function"
    }
  ],
  "bytecode": "0x608060405234801561000f575f80fd5b5060015f806101000a81548163ffffffff021916908363ffffffff1602179055506101848061003d5f395ff3fe608060405234801561000f575f80fd5b5060043610610034575f3560e01c806361bc221a14610038578063d09de08a14610056575b5f80fd5b610040610060565b60405161004d91906100d1565b60405180910390f35b61005e610073565b005b5f8054906101000a900463ffffffff1681565b60015f808282829054906101000a900463ffffffff166100939190610117565b92506101000a81548163ffffffff021916908363ffffffff160217905550565b5f63ffffffff82169050919050565b6100cb816100b3565b82525050565b5f6020820190506100e45f8301846100c2565b92915050565b7f4e487b71000000000000000000000000000000000000000000000000000000005f52601160045260245ffd5b5f610121826100b3565b915061012c836100b3565b9250828201905063ffffffff811115610148576101476100ea565b5b9291505056fea2646970667358221220b45bd5b429fba22737163965ffcc48517f270f1b202fc2a339f21e4fc7a0b32b64736f6c63430008150033",
  "immutableReferences": {},
  "source": "// SPDX-License-Identifier: MIT\npragma solidity >=0.4.22 <0.9.0;\n\ncontract CounterContract {\n    uint32 public counter;\n\n    constructor() {\n        counter = 1;\n    }\n\n    function increment() public {\n        counter += 1;\n    }\n}\n",
  "sourcePath": "/home/allanbatista/Workspaces/allanbatista/study/smart-contract/contracts/CounterContract.sol",
  "compiler": {
    "name": "solc",
    "version": "0.8.21+commit.d9974bed.Emscripten.clang"
  },
  "schemaVersion": "3.4.16",
  "updatedAt": "2025-12-28T00:02:50.323Z",
  "networkType": "ethereum",
  "devdoc": {
    "kind": "dev",
    "methods": {},
    "version": 1
  },
  "userdoc": {
    "kind": "user",
    "methods": {},
    "version": 1
  }
}