{
  "contractName": "CounterWithOwnerContract",
  "abi": [
    {
      "inputs": [],
      "stateMutability": "nonpayable",
      "type": "constructor"
    },
    {
      "inputs": [],
      "name": "OwnerRequiredError",
      "type": "error"
    },
    {
      "inputs": [],
      "name": "counter",
      "outputs": [
        {
          "internalType": "uint256",
          "name": "",
          "type": "uint256"
        }
      ],
      "stateMutability": "view",
      "type": "function"
    },
    {
      "inputs": [],
      "name": "owner",
      "outputs": [
        {
          "internalType": "address",
          "name": "",
          "type": "address"
        }
      ],
      "stateMutability": "view",
      "type": "function"
    },
    {
      "inputs": [],
      "name": "increment",
      "outputs": [],
      "stateMutability": "nonpayable",
      "type": "function"
    },
    {
      "inputs": [],
      "name": "reset",
      "outputs": [],
      "stateMutability": "nonpayable",
      "type": "function"
    }
  ],
  "bytecode": "0x608060405234801561000f575f80fd5b505f80819055503360015f6101000a81548173ffffffffffffffffffffffffffffffffffffffff021916908373ffffffffffffffffffffffffffffffffffffffff16021790555061028f806100635f395ff3fe608060405234801561000f575f80fd5b506004361061004a575f3560e01c806361bc221a1461004e5780638da5cb5b1461006c578063d09de08a1461008a578063d826f88f14610094575b5f80fd5b61005661009e565b6040516100639190610188565b60405180910390f35b6100746100a3565b60405161008191906101e0565b60405180910390f35b6100926100c8565b005b61009c6100e2565b005b5f5481565b60015f9054906101000a900473ffffffffffffffffffffffffffffffffffffffff1681565b60015f808282546100d99190610226565b92505081905550565b3373ffffffffffffffffffffffffffffffffffffffff1660015f9054906101000a900473ffffffffffffffffffffffffffffffffffffffff1673ffffffffffffffffffffffffffffffffffffffff1614610168576040517fcb7ce2be00000000000000000000000000000000000000000000000000000000815260040160405180910390fd5b5f8081905550565b5f819050919050565b61018281610170565b82525050565b5f60208201905061019b5f830184610179565b92915050565b5f73ffffffffffffffffffffffffffffffffffffffff82169050919050565b5f6101ca826101a1565b9050919050565b6101da816101c0565b82525050565b5f6020820190506101f35f8301846101d1565b92915050565b7f4e487b71000000000000000000000000000000000000000000000000000000005f52601160045260245ffd5b5f61023082610170565b915061023b83610170565b9250828201905080821115610253576102526101f9565b5b9291505056fea26469706673582212205e03943b6e0e862832450e603582c82e93615e9428c31b85c7a2c06694f2012964736f6c63430008150033",
  "immutableReferences": {},
  "source": "// SPDX-License-Identifier: MIT\npragma solidity >=0.4.22 <0.9.0;\n\nerror OwnerRequiredError();\n\ncontract CounterWithOwnerContract {\n    uint public counter;\n    address public owner;\n\n    constructor() {\n        counter = 0;\n        owner = msg.sender;\n    }\n\n    function increment() public {\n        counter += 1;\n    }\n\n    function reset() public {\n        if(owner != msg.sender)\n            revert OwnerRequiredError();\n\n        counter = 0;\n    }\n}\n",
  "sourcePath": "/home/allanbatista/Workspaces/allanbatista/study/smart-contract/contracts/CounterWithOwnerContract.sol",
  "compiler": {
    "name": "solc",
    "version": "0.8.21+commit.d9974bed.Emscripten.clang"
  },
  "schemaVersion": "3.4.16",
  "updatedAt": "2025-12-28T00:15:51.682Z",
  "devdoc": {
    "kind": "dev",
    "methods": {},
    "version": 1
  },
  "userdoc": {
    "kind": "user",
    "methods": {},
    "version": 1
  }
}